:020000040000FA
:100000001124669A26E030E408C000000197E9F761
:100010008DB183278DB9215019F081E091E7F6CF9A
:1000200080911F138B3E69F48FEF80931F138DE92E
:1000300093E084BF909300108091021081FDFCCF6B
:1000400006C082E080930110E0E0F1E0099580ECC9
:1000500080930608A09123110A2E000CBB0BBC5FF5
:100060002CE530E00E9476007E5F8F4F9F4F2AE0A4
:1000700095958795779567952A95D1F760930808A8
:10008000709309088091E20581608093E205049AEB
:10009000E0E0F2E42DE933E040E41EC08091040882
:1000A00087FFFCCF80910008E11552E4F50711F4B9
:1000B000882391F0809302088193CF018F7799274D
:1000C000892B51F424BF309300108091021080FDE1
:1000D000FCCF8DB184278DB9CF0190548115904C00
:1000E000E8F288ED91E084BF909341000E947D008A
:1000F000B7FF0895821B930B0895A29FB001B39F91
:10010000C001A39F700D811D1124911DB29F700D20
:08011000811D1124911D0895C9
:100200000C947F010C94A7010C94A7010C94A701F6
:100210000C94A7010C94A7010C94A7010C94A701BE
:100220000C94A7010C94A7010C94A7010C94A701AE
:100230000C94A7010C94A7010C94152B0C94C62BBD
:100240000C94A7010C94A7010C94A7010C94A7018E
:100250000C94A7010C94A7010C94A7010C94A7017E
:100260000C94A7010C94A7010C94A7010C94A7016E
:100270000C94A7010C94A7010C94A7010C94A7015E
:100280000C94A7010C94A7010C94A7010C94A7014E
:100290000C94422A0C94CC2A0C94A62A0C94A70104
:1002A00008000000BE922449123EABAAAA2ABECD85
:1002B000CCCC4C3E00000080BEABAAAAAA3E0000F7
:1002C0000000BF000000803F0000000000084178EF
:1002D000D3BB4387D1133D190E3CC3BD4282AD2B26
:1002E0003E68EC8276BED98FE1A93E4C80EFFFBE1E
:1002F00001C4FF7F3F0000000000A22C862C1124C7
:100300001FBECFEFCDBFDFE3DEBF18E2A0E0B8E253
:10031000E1E1F2E802C005900D92AE31B107D9F7E4
:100320002CE2AEE1B8E201C01D92AC30B207E1F7B9
:1003300011E0CEE7D1E004C02197FE010E942339ED
:10034000CD37D107C9F70E944B2E0C94413E0C9437
:100350000001CF93DF9390E0FC01E15BF244208148
:100360002F3F71F0FC01EA5DF244A08130E2A39FCF
:10037000D0011124BC5F6130710529F411962C93D2
:10038000DF91CF91089583509344EC01E881EF3FD2
:1003900089F0CD014096E80FF92FF11D9FB7F89431
:1003A00012962C9380816230710539F488608083C5
:1003B0009FBFE6CFF0E0E0E0F1CF877FF8CF282FB6
:1003C00030E0F901EC52F344E081EE2309F1E13031
:1003D00021F0F0F0E63098F008954091010A2350A2
:1003E0003344F90120812C5F81E090E001C0880F47
:1003F0002A95EAF7809584238093010A089580E185
:10040000E89FF0011124E05AF54F81818F7E8183AE
:100410000895FF920F931F93CF93DF93082F10E05F
:10042000F801E15BF244F0809FEFF916A1F0EB01D7
:10043000893210F40E94DF01F801EA5DF244E081A4
:1004400080E2E89FF0011124FC5F80818F2159F048
:10045000CD2B39F4F682DF91CF911F910F91FF9050
:100460000895F582F8CFD801A350B3448C9130970A
:1004700071F08F3F61F07096E80FF11D9FB7F8940F
:100480008081CD2B39F4877F80839FBFE4CFF0E05C
:10049000E0E0F4CF8860F8CF0F931F93CF93082F3D
:1004A00010E0F801E15BF244C081CF3FB9F089323E
:1004B00010F40E94DF01F801EA5DF244E08180E27D
:1004C000E89FF0011124FC5F8085C82381E090E063
:1004D00009F480E0CF911F910F91089580E090E0A2
:1004E000F9CF893210F40C9409020895893210F47E
:1004F0000C94A90108958E508093060681E08093A4
:10050000080680910B0680FFFCCF2FB7F8948091EE
:100510001006909111062FBF0895CF93DF938FB7E8
:10052000F8942091B3293091B4294091B529509184
:10053000B629E091BA0A9091B60A90FF06C02F5FE3
:100540003F4F4F4F5F4FE091BA0A8FBFA091B12943
:10055000B091B229C091AF29D091B0290E9404373F
:10056000EC9F9001ED9F300D1124620F731F811DD0
:10057000911DDF91CF9108958F929F92AF92BF927C
:10058000CF92DF92EF92FF924B015C010E948D02AD
:100590006B017C01A8EEB3E0A50194010E94043731
:1005A000C60ED71EE81EF91EC616D706E806F906BF
:1005B00018F40E948D02F8CF0E948D026C157D0503
:1005C0008E059F05C8F3FF90EF90DF90CF90BF900E
:1005D000AF909F908F9008952FB7F8946091AB29BA
:1005E0007091AC298091AD299091AE292FBF0895CB
:1005F00021E0FC0184858F3F09F420E0822F0895DB
:10060000AF92BF92CF92DF92EF92FF920F931F9320
:10061000CF93DF936C017B018B01040F151FEB015E
:100620005E01AE18BF08C017D10759F06991D60115
:10063000ED91FC910190F081E02DC6010995892B87
:1006400079F7C501DF91CF911F910F91FF90EF9046
:10065000DF90CF90BF90AF900895FC0154894589F9
:10066000252F30E0842F90E0821B930B541710F05D
:10067000CF96089501970895FC0192898389981770
:1006800061F0A389AE0FBF2FB11D59968C9193894C
:100690009F5F9F73938B90E008958FEF9FEF089576
:1006A000FC0192898389981731F08389E80FF11D45
:1006B000818D90E008958FEF9FEF0895FC0192895E
:1006C0002389892F90E0805C9F4F821B91098F7353
:1006D00099270895CF93DF93EC01E881F981068093
:1006E000F781E02D0995EC85FD8586818F738683E2
:1006F000EC85FD8585818F7585838B898A8B198A29
:10070000DF91CF910895CF92DF92EF92FF920F93F6
:100710001F93CF93DF93EC016A017B01022F89893C
:10072000882339F0E881F9810288F389E02DCE0130
:10073000099598898091E205892B8093E2051FB77E
:10074000F89460E070E281EA97E0A70196010E94C8
:10075000C33669017A018FEFC81AD80AE80AF80A85
:10076000F694E794D794C794EC85FD8586818D7FB8
:100770008683EC85FD8586818683198AA091231165
:100780000A2E000CBB0BA70196010E940F3720E038
:1007900034E040E050E00E94E536EC85FD85C20E75
:1007A000D31EE41EF51EC086D186EC85FD85078329
:1007B000EC85FD858681806C8683EC85FD85858151
:1007C000806885838E8562E070E00E9476028F8566
:1007D00061E070E00E9471028F8561E070E00E942C
:1007E00076021FBFDF91CF911F910F91FF90EF9085
:1007F000DF90CF900895CF93DF93FC019489858992
:10080000C485D585981306C08D818F7D8D83DF913A
:10081000CF910895A589AE0FBF2FB11DA75ABF4F25
:100820002C91858990E001968F739927858B80E4C0
:100830008C83A485B58512962C9394898589981309
:10084000E6CFA485B58515968C9115978F7D159665
:100850008C9387898823D9F2808D80931301178A1E
:10086000D6CFDC011C96ED91FC910FB607FE03C0BC
:10087000258125FD04C0248125FD0C94FB030895EA
:10088000EF92FF920F931F93CF93DF93EC0181E0E0
:10089000898B9C898D8998131CC0AC85BD85149665
:1008A0008C91149785FF15C012966C93AC85BD850D
:1008B00080E414968C93EC85FD8585818F7D8583FE
:1008C00081E090E0DF91CF911F910F91FF90EF9029
:1008D00008958091110180FF08C080911301888FD5
:1008E0008E898093130181E08F8BF62E0C8910E0A6
:1008F0000F5F1F4F0F731127E02E8D898E1104C0DB
:10090000CE010E943104F9CFEC89EC0FFD2FF11DCF
:10091000E75AFF4FF0820C8BEC85FD858581806264
:10092000CECFCF93DF93FC0121892223C9F0EC01C4
:100930008091110180FF08C080911301808F86890A
:100940008093130181E0878BEC85FD85858185FD92
:1009500003C0848186FD04C0CE010E943104F4CF1F
:10096000DF91CF91089581E008950895EF92FF926D
:100970000F931F93CF93DF937C01EB018B01040F47
:10098000151FC017D10759F0D701ED91FC910480D4
:10099000F581E02D6881C70109958993F2CFDF9138
:1009A000CF911F910F91FF90EF9008950F931F9398
:1009B000CF93DF93EC018B018091C008E881F9812E
:1009C0000480F581E02D86FD13C0612FCE010995CD
:1009D000182FE881F9810480F581E02D602FCE0188
:1009E0000995082FC801DF91CF911F910F910895AC
:1009F000CE010995082FE881F9810480F581E02D69
:100A0000612FCE010995182FEDCF00006093C40827
:100A10008091C30887FFFCCF8091C40808958F920E
:100A20009F92AF92BF92CF92DF92EF92FF920F937D
:100A30001F93CF93DF93FC018085882319F081FFFA
:100A40000EC07894DF91CF911F910F91FF90EF909E
:100A5000DF90CF90BF90AF909F908F90089580FFD0
:100A6000F1CF82849384A484B584C12CD12C7601E7
:100A700010E09401A501B601C701A0E00E94583919
:100A800099F1217030E040E050E060E070E080E0FB
:100A900090E00E945839D9F0D0E0C0E0103370F4F3
:100AA000C12FC695C695C69580E2C89FE001112466
:100AB000C05FDB4F812F8770C80FD11DCF01810F21
:100AC000911DDC0152968C919881892B8883940129
:100AD000A501B601C70101E00E942B3949015A0165
:100AE0006B017C011F5FC5CF86849784A088B18885
:100AF000C12CD12C760110E29401A501B601C701E9
:100B0000A0E00E94583909F49DCF217030E040E008
:100B100050E060E070E080E090E00E945839D9F049
:100B2000D0E0C0E0103370F4C12FC695C695C695CD
:100B3000B0E2CB9FE0011124C05FDB4F812F8770B3
:100B4000C80FD11DCF01810F911DDC0152968C91F0
:100B50009881892B88839401A501B601C70101E022
:100B60000E942B3949015A016B017C011F5FC4CFE0
:100B7000FC016F3F710581F1808581FD2DC06032E0
:100B800071055CF581E090E002C0880F991F6A95BD
:100B9000E2F780959095092E000CAA0BBB0B4285BD
:100BA00053856485758584239523A623B72382877F
:100BB0009387A487B58782859385A485B585892B7E
:100BC0008A2B8B2B49F486859785A089B189892B3F
:100BD0008A2B8B2B09F4108608956052710981E0ED
:100BE00090E002C0880F991F6A95E2F78095909572
:100BF000092E000CAA0BBB0B4685578560897189AD
:100C000084239523A623B72386879787A08BB18B50
:100C1000D2CFFC016F3F7105E9F1603371051CF023
:100C200082E08087089580858160808760327105C9
:100C3000C4F481E090E002C0880F991F6A95E2F742
:100C4000092E000CAA0BBB0B428553856485758564
:100C5000842B952BA62BB72B82879387A487B587E8
:100C600008956052710981E090E002C0880F991FD9
:100C70006A95E2F7092E000CAA0BBB0B4685578537
:100C800060897189842B952BA62BB72B8687978734
:100C9000A08BB18B0895E0ECF8E020812E7F2083BB
:100CA000FC0117820895E0ECF8E082818E7F828358
:100CB0000895E0ECF8E082818160828308950F93CB
:100CC00091E090935E2910925D2960935B29709367
:100CD0005C2940935A29209359291092582910923F
:100CE000572900935629880F8093552923E030E037
:100CF00044E050E080915A29882341F02093532901
:100D000030935429809155298E7F0BC080915929A9
:100D1000882351F0409353295093542980915529A9
:100D200081608093A70808C080915A29811104C06E
:100D300080915929882311F380915D298823E1F35B
:100D400080915D298330B1F280915929882321F067
:100D5000809157290F91089580915D29823031F05B
:100D6000853031F0813031F480E0F4CF81E0F2CF92
:100D700083E0F0CF84E0EECFE0EAF8E09185906682
:100D8000918722E030E020935329309354298093B7
:100D9000452910924429089581E0809344291092B6
:100DA000452993E09093AA089091AB0891FF10C059
:100DB00010925129E0914229F0914329099580939D
:100DC000502985E090E08093532990935429089509
:100DD0001092522980934F2986E090E0F4CF8F92B1
:100DE0009F92AF92BF92CF92DF92EF92FF92CF93FA
:100DF000DF9360342DE0720723E08207910508F449
:100E000054C0611525E372072CE08207910508F4B0
:100E100045C060387F448241910508F046C0C8E76C
:100E2000D0E020E432E44FE050E08090072890903A
:100E30000828A0900928B0900A28C501B4010E9492
:100E4000C33669017A018AE0C81AD108E108F108BD
:100E5000C501B40120E432E44FE050E00E94C33603
:100E6000DE010E94043728EE33E040E050E00E94AB
:100E7000C336C21AD30AE40AF50AF694E794D79463
:100E8000C794C092A608DF91CF91FF90EF90DF90BA
:100E9000CF90BF90AF909F908F900895CCE2D1E01B
:100EA00020E83AE146E050E0C0CFC8EED3E020EAC7
:100EB00036E841E050E0B9CF609340297093412972
:100EC000089560933E2970933F290895E091402949
:100ED000F0914129309741F010923D2910923C2920
:100EE000099580913C29089580E00895E0913E297C
:100EF000F0913F29309759F030913B2920913A29C0
:100F0000321728F010923B2980933A2909940895CA
:100F10000895E0913B2980913A29E81730F4F0E0F8
:100F2000E654F74D808190E008958FEF9FEF08958C
:100F300090913B2980913A292FEF3FEF981748F481
:100F4000E92FF0E0E654F74D208130E09F5F909369
:100F50003B29C901089580913A2990913B29891B29
:100F6000990B0895CF92DF92EF92FF920F931F9308
:100F7000CF93DF937C018A01EB016B01C40ED51E78
:100F8000CC15DD0551F06991D701ED91FC910190EF
:100F9000F081E02DC7010995F3CFC801DF91CF9112
:100FA0001F910F91FF90EF90DF90CF9008952091C7
:100FB0003C2927FF08C021E030E0FC012283338375
:100FC00090E080E0089580913D29E82FF0E0E65C14
:100FD000F74D60838F5F80933D2980933C2981E0AA
:100FE00090E00895DC01ED91FC91008CF18DE02DF5
:100FF00061E009940F9380915329909154290197AE
:10100000A1F480915E29811112C0062F20E0409149
:101010003C296AE378E2809139280E945F061092A9
:101020003D2910923C290F91089580E0F8CF81E08E
:10103000F6CF6093392810923D2910923C290895EB
:10104000CF93DF93EC016EE38DE99AE20E941908D9
:1010500068818DE99AE20E94D70769818DE99AE259
:101060000E94D7078DE99AE2DF91CF910C94F207A5
:10107000CF93DF93D82FC62F62E68DE99AE20E94C4
:1010800019086D2F8DE99AE20E94D7076C2F8DE920
:101090009AE20E94D7078DE99AE2DF91CF910C94F2
:1010A000F207CF93DF93D62FC42F682F84E00E94DE
:1010B00038086D2F83E00E9438086C2F82E0DF91A2
:1010C000CF910C943808DC01ED91FC91048CF58DE6
:1010D000E02D21E009940F938AEB98E28093462952
:1010E0009093472980915329909154290197C9F4ED
:1010F00080915E29811117C0FA014138510510F025
:10110000E0E8F0E0022F862F2E2F40E070E060E054
:101110000E945F0610923B2980933A2990E00F913C
:10112000089580E0F7CF81E0F5CFCB01BA010C94B0
:10113000EF06E0EAF8E01382168281E085831486E8
:1011400011861092532910925429089510923B2928
:1011500010923A2910923D2910923C2980915329EE
:1011600090915429892BD9F482E090E080935329FF
:101170009093542910925229109251291092442987
:10118000109245291092382810924F29660F6093CB
:10119000AC0881EE8093A90881E08093A30886E6DD
:1011A00097E080934229909343298AE398E28093C1
:1011B00048299093492986E797E080934D29909399
:1011C0004E298AEB98E280934A2990934B2980E834
:1011D00080934C29089510923B2910923A2910923D
:1011E0003D2910923C298091532990915429892BB3
:1011F000F1F48091E3058093E30581E090E0809332
:1012000053299093542910925729109258291092DB
:101210005E2910925D2981EC8093A30860EA76E84C
:1012200081E090E00E94EF0681E08093A508089598
:10123000CF92DF92EF92FF92CF93C82F0E94EC02E1
:101240006B017C01809106288932C8F40E944C020F
:10125000892BA9F0CC23B1F30E94EC026C197D0913
:101260008E099F09603177428105910558F7E09119
:10127000AD2AF091AE2A309729F30995E3CFCF91AB
:10128000FF90EF90DF90CF900895CF93DF931F9260
:10129000CDB7DEB78983698183E59AE20F90DF914C
:1012A000CF910C940505CF93DF93D82FC62F80EEF6
:1012B0000E9445098D2F0E9445098C2F0E944509E7
:1012C000C11105C08EEEDF91CF910C944509DF91DD
:1012D000CF910895DF92EF92FF920F931F93CF93D8
:1012E000DF93D82EE92E8B01F42E812F0E94450921
:1012F000802F0E944509CD2DDE2D0C0F1D1FC0171C
:10130000D10721F089910E944509F9CF81E0F812B7
:101310000AC08EEEDF91CF911F910F91FF90EF9059
:10132000DF900C944509DF91CF911F910F91FF90B1
:10133000EF90DF900895DF92EF92FF920F931F934B
:10134000CF93DF937C01C62FD42E862F0E944509B0
:101350008701D0E0C8018E199F098C179D0734F4CE
:10136000F80181918F010E944509F4CFF1E0DF126D
:101370000AC08EEEDF91CF911F910F91FF90EF90F9
:10138000DF900C944509DF91CF911F910F91FF9051
:10139000EF90DF900895CF93DF93EC018FEF0E94E1
:1013A00045098883DF91CF910895CF93DF931F92F2
:1013B000CDB7DEB71982CE0101960E94CB09898193
:1013C0000F90DF91CF910895CF93DF93C9EED3E0D3
:1013D0000E94D5098F3E69F0219711F0803EC1F738
:1013E00021E090E0803E09F020E0822FDF91CF9154
:1013F00008958FEF9FEFFACFCF92DF92EF92FF9297
:101400000F931F93CF93DF931F92CDB7DEB7182FA3
:101410006B017A0119820E94E409892B61F490E042
:1014200080E00F90DF91CF911F910F91FF90EF908F
:10143000DF90CF900895CE0101960E94CB091068ED
:1014400089811813ECCFCE0101960E94CB098981C6
:10145000813029F78FEF0E944509F701808310E062
:1014600000E0F70180818017110649F044F0C601C1
:10147000800F911F0E94CB090F5F1F4FF2CFCE014B
:1014800001960E94CB0981E090E0CBCFCF92DF9212
:10149000EF92FF920F931F93CF93DF931F92CDB7DD
:1014A000DEB7182F7B016A0119820E94E409892B9B
:1014B00061F490E080E00F90DF91CF911F910F9148
:1014C000FF90EF90DF90CF900895CE0101960E949B
:1014D000CB09106889811813ECCF0E94D5098823A5
:1014E000B1F08FEF0E944509F60180838701F60174
:1014F0002081C8018E199F092817190641F03CF078
:101500008FEF0E944509F80181938F01F0CFCE0142
:1015100001960E94CB0981E090E0CDCF6F927F923F
:101520008F929F92AF92BF92CF92DF92EF92FF92F3
:101530000F931F93CF93DF931F92CDB7DEB7182F72
:10154000662E7A0119820E94E409892B91F490E0B9
:1015500080E00F90DF91CF911F910F91FF90EF905E
:10156000DF90CF90BF90AF909F908F907F906F90C3
:101570000895CE0101960E94CB0910688981181345
:10158000E6CF0E94D509782E882309F38701D12C54
:10159000C12C882E912CC814D90404F58FEF0E9419
:1015A0004509F8018083F12CE12CF80180818E152A
:1015B0001F0471F06CF0A180B280AE0CBF1C8FEFE5
:1015C0000E944509F5018083FFEFEF1AFF0AEDCF76
:1015D0008FEFC81AD80A0D5F1F4FDDCF7610B7CF37
:1015E000CE0101960E94CB0981E090E0B2CF61E08C
:1015F00070E0809105280E94710283E59AE20C94C4
:101600000F05CF93DF931F92CDB7DEB76983DC015F
:10161000ED91FC910280F381E02D41E050E0BE01AC
:101620006F5F7F4F09950F90DF91CF910895FC0177
:10163000878590890895DC01ED91FC91048CF58DEE
:10164000E02D0994CF93DF931F92CDB7DEB7698366
:10165000DC01ED91FC910280F381E02D41E050E04E
:10166000BE016F5F7F4F09950F90DF91CF91089575
:10167000FC0167870895CF93DF931F92CDB7DEB744
:101680006983DC01ED91FC910280F381E02D41E062
:1016900050E0BE016F5F7F4F09950F90DF91CF91B2
:1016A0000895CF93DF9300D0CDB7DEB790E899834C
:1016B0008A83CE0101960E9420080F900F90DF913F
:1016C000CF910895CF93DF9300D0CDB7DEB780E4FC
:1016D00089836A83CE0101960E94200881E090E010
:1016E0000F900F90DF91CF9108950895DC011C9623
:1016F0008D919C91DC01ED91FC910084F185E02DB0
:101700000994DC011C968D919C91DC01ED91FC917A
:101710000688F789E02D0994CF93DF93FC01848537
:101720009585EF01CF59DF4F48815981E15AFF4F2D
:1017300060817181DC01ED91FC910280F381E02DEB
:10174000099521E030E0488159814817590711F087
:1017500030E020E018821982C901DF91CF9108950D
:1017600081E00895CF93DF93EC010E94810B8823E1
:1017700021F08FA5DF91CF91089580E0FBCFDC01B0
:10178000D2962D913C91D3972630310551F41C9679
:101790008D919C91DC01ED91FC910484F585E02D07
:1017A00009948FEF9FEF0895CF93DF931F92CDB7EA
:1017B000DEB7DC01ED91FC910288F389E02D41E078
:1017C00050E0BE016F5F7F4F0995019731F4898129
:1017D00090E00F90DF91CF9108958FEF9FEFF9CFB9
:1017E000FC0122A933A92630310519F486A997A94D
:1017F000089590E080E00895CF93DF931F92CDB7D6
:10180000DEB76983DC01ED91FC910280F381E02D6C
:1018100041E050E0BE016F5F7F4F09950F90DF916F
:10182000CF9108950F931F93609300287093012820
:10183000809302289093032800916B2910916C29C2
:1018400020916D2930916E29DC01CB01800F911F11
:10185000A21FB31F8093672990936829A0936929D9
:10186000B0936A291F910F9108950F931F930E94BF
:10187000EC028B019C0140913328509134286091F7
:1018800035287091362880916B2990916C29A09110
:101890006D29B0916E29041B150B260B370B083EE2
:1018A000134021053105C0F00196A11DB11D8093A3
:1018B0006B2990936C29A0936D29B0936E294851A0
:1018C0005C4F6F4F7F4F4093332850933428609381
:1018D000352870933628CBCF4091672950916829DD
:1018E0006091692970916A2984179507A607B7073F
:1018F000D0F1E0916F29F09170293097A1F109950D
:10190000AB01BC018091002890910128A091022890
:10191000B0910328411551056105710579F1409396
:101920006B2950936C2960936D2970936E29840FF5
:10193000951FA61FB71F8093672990936829A093CE
:101940006929B0936A2982E090E08093712990938D
:1019500072290E94EC02609333287093342880939C
:1019600035289093362860916B2970916C2980916D
:101970006D2990916E291F910F91089540916B29C7
:1019800050916C2960916D2970916E29840F951F7B
:10199000A61FB71F8093672990936829A093692990
:1019A000B0936A2981E090E02091712930917229E9
:1019B000232B11F490E080E0809371299093722999
:1019C000D2CF4F925F926F927F928F929F92AF92FF
:1019D000BF92CF92DF92EF92FF920F931F93CF931C
:1019E000DF934B015C0180912F2890913028A091CA
:1019F0003128B091322888159905AA05BB0509F44C
:101A0000C6C08CE3C82ED12CE12CF12CC501A70156
:101A100096010E94C33660932828CA01B901A70124
:101A200096010E94C33660932928C501B40120E1C4
:101A30003EE040E050E00E94C336CA01B90128E10F
:101A400030E040E050E00E94C33660932A28C50190
:101A5000B40120E831E541E050E00E94C33669015D
:101A60007A01CA01B9016C5F7F4F8F4F9F4F27E00A
:101A700030E040E050E00E94C3366F5F60932B2857
:101A8000412C512C320140E004E610E0C0E9D1E0E5
:101A9000242F30E02E54384FF901E370FF273097A0
:101AA000F9F4C901B8010E940F39892B31F4C90139
:101AB000BE010E940F39892B99F48EE691E0A0E0D7
:101AC000B0E0480E591E6A1E7B1ED301C201AA2730
:101AD000BB27C816D906EA06FB0638F04F5FD8CFF9
:101AE0008DE691E0A0E0B0E0ECCF40932E28C90154
:101AF00064E670E00E940F39EC01C90160E971E011
:101B00000E940F39309721F42097D9F40097C9F03B
:101B10004DE651E060E070E0441A550A660A770A23
:101B2000C418D508E608F708ACE9BCEB20E0213082
:101B300069F43097E9F5209711F40097C9F54DE164
:101B400006C04EE651E060E070E0E6CF4C9150E018
:101B500070E060E031E0320FC416D506E606F70605
:101B600040F0C41AD50AE60AF70A1196232F3C3032
:101B7000F1F62F5F20932D28C394C0922C288092D9
:101B80002F2890923028A0923128B0923228DF91ED
:101B9000CF911F910F91FF90EF90DF90CF90BF906A
:101BA000AF909F908F907F906F905F904F9008952F
:101BB0004CE1CDCF0895CF93DF93EC018C859D85CB
:101BC000DC01ED91FC910288F389E02D0995288DC7
:101BD000398D285031092330310568F42C8D3D8D25
:101BE0001216130644F497FD06C02E8D3F8D280F64
:101BF000391F2E8F3F8FDF91CF910895CF93DF93C1
:101C0000EC018CA181110EC08C859D85DC01ED91CC
:101C1000FC910284F385E02D099597FF0FC0DF91B9
:101C2000CF910895E881F9810084F185E02DCE01FE
:101C30000995892B49F78FEF9FEFF1CF488D598D8B
:101C40009A01285031092330310548F72C8D3D8DFC
:101C50001216130634F42E8D3F8D2F5F3F4F2E8FBB
:101C60003F8F4A305105D9F62DA13EA121503109AF
:101C70002DA33EA3232B99F629E030E0288F398F3E
:101C8000CECF2F923F924F925F926F927F928F9220
:101C90009F92AF92BF92CF92DF92EF92FF920F93FB
:101CA0001F93CF93DF93EC010E94EC024B015C0188
:101CB00084E0282E312C06E010E098E0492E512CCB
:101CC00029E0622E712C37E0E32EF12C45E0C42E82
:101CD000D12C888D998D08970397F8F00E94EC021B
:101CE000681979098A099B092FA138A549A55AA520
:101CF000621773078407950780F4E881F9810084EF
:101D0000F185E02DCE010995892B11F568EE73E080
:101D100080E090E00E94BC02DCCF888D998D08970E
:101D2000039708F49EC08DEF9FEFDF91CF911F9135
:101D30000F91FF90EF90DF90CF90BF90AF909F906A
:101D40008F907F906F905F904F903F902F9008956D
:101D5000E881F9810284F385E02DCE010995288D73
:101D6000398DA901485051094330510508F43FC04D
:101D70002530310509F440C02730310509F452C03F
:101D80002430310509F06AC0A8A1B9A19C9189133A
:101D900012C09D012F5F3F4F28A339A311969C913C
:101DA000911106C0C88ED98E1C8E1D8E1E8E1F8E60
:101DB0008A30E9F445C0EAA1FBA1908189130DC0E6
:101DC0009F012F5F3F4F2AA33BA391819111F0CF39
:101DD00091E09CA3088F198FEBCFA659BE4BD1F78A
:101DE000E75AFE4BB9F78D30A9F7E88EF98E0E94BD
:101DF000EC024B015C016DCF282F082E000C330B39
:101E0000205331092A30310528F76C8D7D8D9AE0F9
:101E1000969FA001979F500D1124240F351F2C8FE2
:101E20003D8FC6CF8A3019F78CA18823A1F0688E28
:101E3000798E1DA21EA2888D998D08970397B8F2FE
:101E4000288E398E86E99EEB88A399A387EA9EEBBC
:101E50008AA39BA3CCCF488E598EEDCF8A3039F61A
:101E6000EACF90E080E061CFCF93DF93EC018C85E7
:101E70009D85DC01ED91FC910488F589E02D0995A3
:101E8000188E198E1A8E1B8E8FEF9FEF8C8F9D8F61
:101E90001E8E1F8E86E99EEB88A399A387EA9EEB90
:101EA0008AA39BA31CA21DA21EA280E395E7A0E02B
:101EB000B0E08FA398A7A9A7BAA7DF91CF91089503
:101EC000FC0147A350A761A772A70895FC0167A171
:101ED00070A581A592A5089521E0FC0184859585D2
:101EE000892B09F420E0822F0895DC011C968D9146
:101EF0009C91DC01ED91FC910688F789E02D099415
:101F0000DC011C968D919C91DC01ED91FC91008887
:101F1000F189E02D09940F931F93CF93DF93CDB7F1
:101F2000DEB72697CDBFDEBFDC011C968D919C915C
:101F3000DC01ED91FC910684F785E02D2CED3DEB65
:101F400029833A83DB0112960D911D912D913C91CD
:101F500015970B831C832D833E83BE016F5F7F4FDC
:101F600009952696CDBFDEBFDF91CF911F910F91CE
:101F70000895DC011C968D919C91DC01ED91FC9102
:101F80000680F781E02D0994DC011C968D919C91CF
:101F9000DC01ED91FC910484F585E02D0994FC01B0
:101FA000808D918D0897039758F4248D358D2F3FA0
:101FB000320731F081E0468D578D421753070CF4FC
:101FC00080E00895DC01ED91FC910088F189E02D1D
:101FD00023E030E0099490E080E00895CF93DF9310
:101FE000EC0182E00E9445098D2F0E9445098C2F4B
:101FF000DF91CF910C944509CF93DF9326E0289F82
:10200000E001299FD00D1124C653D44D88819981B8
:10201000009741F00E94003A1A821B8218821982AE
:102020001C821D82DF91CF910895FC0180819181F6
:10203000009711F00C94003A08950C94003A0C9417
:10204000003A0F931F93CF93DF93EC0182EE9DEB49
:10205000888399838E0104591F4FF80180819181F3
:10206000009729F00E94003AF801108211828E0137
:102070000C591F4FF80180819181009729F00E942F
:10208000003AF80110821182CE018C5A9F4F0E94B3
:102090001510CE01CE960E941510CE014C960E94CE
:1020A0001510CE0146960E941510CE014096DF9184
:1020B000CF911F910F910C941510CF93DF93EC01EA
:1020C0000E942110CE01DF91CF910C94003A0F9322
:1020D0001F93CF93DF938A01FC01E15AFF4FEC017C
:1020E000CF59DF4F2081318188819981820F931FE1
:1020F0000E94573B88819981800F911F8883998323
:10210000C801DF91CF911F910F910895CF92DF9277
:10211000EF92FF920F931F93CF93DF931F92CDB750
:10212000DEB78A016C014FE5C40ED11CD6012D9398
:102130003C937C01B1E6EB0EF11CF7011082118299
:10214000F0E16F9FB0011124698341E050E0BE01CE
:102150006F5F7F4F0E946710802F8F77000F012FD6
:10216000001F110B11950115110509F08068D601AA
:10217000ED91FC91D7012D913C911197A9014F5FF1
:102180005F4F4D935C931197E20FF31F808301150E
:10219000110511F78D919C910F90DF91CF911F91B7
:1021A0000F91FF90EF90DF90CF9008950F931F93C2
:1021B000CF93DF9300D0CDB7DEB78C01DC01ED917A
:1021C000FC910688F789E02D0995882361F09E012E
:1021D0002F5F3F4F50E040E06EE0C8010E94861044
:1021E000C8010E948C0BF80117A684859585DC0137
:1021F000ED91FC910488F589E02D09950F900F90E1
:10220000DF91CF911F910F910895CF93DF9300D06D
:10221000CDB7DEB776276727762769837A8342E0D2
:1022200050E0BE016F5F7F4F0E9467100F900F90CC
:10223000DF91CF910895EF92FF920F931F93CF9369
:10224000DF9300D000D0CDB7DEB78C01FC01E95B95
:10225000FF4F80818130E9F43296E080F1809E0169
:102260002F5F3F4F42E050E064E0C8010E948610BB
:10227000B701C8010E940511C8010E948C0B249669
:10228000CDBFDEBFDF91CF911F910F91FF90EF90F7
:1022900008958230A1F7F801E75BFF4FE080F180FD
:1022A0009E012F5F3F4F42E050E065E0DECF8F920E
:1022B0009F92AF92BF92CF92DF92EF92FF920F93D5
:1022C0001F93CF93DF93DC01D2962D913C91263062
:1022D000310581F010E000E0C801DF91CF911F913E
:1022E0000F91FF90EF90DF90CF90BF90AF909F90B5
:1022F0008F9008958A015B01EC01E881F9810084E7
:10230000F185E02D09956C010817190708F468019B
:10231000750110E000E00C151D05A9F00E94EC020B
:102320004B015C01CE010E94760B892BF1F08C856C
:102330009D85DC01ED91FC910284F385E02D0995EA
:102340008F3F980719F50115110521F28EA99FA954
:10235000801B910B8EAB9FAB892B09F0BDCFCE01BB
:102360000E941B111AAA1BAAB7CFCE010E94810B93
:10237000882349F30E94EC02681979098A099B09AC
:10238000683E73408105910568F2DDCF0F5F1F4FF6
:10239000D7018D937D01BFCFCF92DF92EF92FF9255
:1023A0000F931F93CF93DF93EC016B018A01BA0166
:1023B0000E9405117C01A801B601CE010E946710A0
:1023C0008E0D9F1DDF91CF911F910F91FF90EF9088
:1023D000DF90CF900895AF92BF92CF92DF92EF92AD
:1023E000FF920F931F93CF93DF935B018A01FC0150
:1023F000E059FF4F20813181232B61F0DF91CF9194
:102400001F910F91FF90EF90DF90CF90BF90AF9012
:102410000C946710FC01ED59FF4F20812223A9F095
:10242000DC011C968D919C91DC01ED91FC91028068
:10243000F381E02DDF91CF911F910F91FF90EF90ED
:10244000DF90CF90BF90AF9009947C01B6E6EB0E81
:10245000F11CF701C080D180DC019B962D913C914D
:102460004C0D5D1D4217530718F089010C191D0909
:10247000EC01CC59DF4F88819981892B29F4C9015E
:102480000E9464398883998388819981A801B50164
:102490008C0D9D1D0E94573BF70180819181800F1B
:1024A000911F80839183C801DF91CF911F910F917C
:1024B000FF90EF90DF90CF90BF90AF900895FB0119
:1024C00001900020E9F73197AF01461B570BDC0163
:1024D000ED91FC910280F381E02D09948F929F92FF
:1024E000AF92BF92EF92FF920F931F93CF93DF9320
:1024F000CDB7DEB7A197CDBFDEBF7C01FA01CB011E
:1025000019A2223008F42AE08E010F5D1F4F822E9F
:10251000912CB12CA12CBF01A50194010E94C336BE
:10252000F901CA016A30F4F4605DD8016E938D013F
:10253000232B242B252B79F790E080E0109721F0B6
:10254000BD01C7010E945F12A196CDBFDEBFDF9122
:10255000CF911F910F91FF90EF90BF90AF909F9000
:102560008F900895695CE1CFCF92DF92EF92FF9256
:10257000CF93DF936B017C016DE288EB99E20E94BF
:102580004004EC0144275527BA014C195D096E0936
:102590007F092AE088EB99E20E946E128C0F9D1F42
:1025A000DF91CF91FF90EF90DF90CF9008958F92C1
:1025B0009F92AF92BF92CF92DF92EF92FF920F93D2
:1025C0001F93CF93DF937C01EB016C0182E0C80E77
:1025D000D11C4701E5E08E0E911C10E000E0F601F1
:1025E00041916F0150E070E060E02AE0CE010E946E
:1025F0006E125C01E881F9810190F081E02D6EE2BC
:10260000CE0109958A0D9B1D080F191FC814D90406
:1026100031F7F701458150E070E060E02AE0CE013B
:102620000E946E12800F911FDF91CF911F910F9129
:10263000FF90EF90DF90CF90BF90AF909F908F90E2
:1026400008958F929F92AF92BF92CF92DF92EF92B6
:10265000FF920F931F93CF93DF93EC016A017B01ED
:10266000AB019601CB01B6010E94C13862EC7EEB52
:10267000811126C046015701E894B7F82FEF3FEFCC
:102680004FE75FE7C501B4010E94C13881110CC05A
:102690002FEF3FEF4FE75FE7C501B4010E948F3591
:1026A00066EC7EEB181664F02FEF3FEF4FE75FE428
:1026B000C701B6010E946C3818168CF46AEC7EEBE8
:1026C000CE01DF91CF911F910F91FF90EF90DF909E
:1026D000CF90BF90AF909F908F900C945F122FEF90
:1026E0003FEF4FE75FECC701B6010E948F3587FDD2
:1026F000E5CF20E030E0A901C701B6010E948F3587
:1027000010E000E087FF0DC0E881F9810190F081C1
:10271000E02D6DE2CE0109958C01F7FAF094F7F8FF
:10272000F0942AE037ED43EA5BE3C701B6010E946B
:1027300058376B017C010E943D384B015C010E94BF
:1027400094359B01AC01C701B6010E9457376B015C
:102750007C012AE0B501A401CE010E946E12080F8F
:10276000191F61E370ECCE010E945F12080F191F60
:1027700020E030E040E251E4C701B6010E94F535A7
:102780004B015C010E943D386B01F12CE12C2AE0E9
:10279000B701A601CE010E946E12080F191FC701D2
:1027A000B6010E9494359B01AC01C501B4010E94A1
:1027B000573720E030E040E251E40E94F5350E94B6
:1027C0003D38AB0170E060E02AE0CE010E946E125D
:1027D000800F911FDF91CF911F910F91FF90EF908C
:1027E000DF90CF90BF90AF909F908F9008956EEC48
:1027F0007EEB0C945F12CF93DF9368EB79E20E943B
:10280000D712EC0188EB99E20E94F7138C0F9D1F01
:10281000DF91CF9108950F931F93CF93DF938C0196
:10282000D0E0C0E06115710519F00E945F12EC0163
:10283000C8010E94F7138C0F9D1FDF91CF911F914C
:102840000F910895CF92DF92EF92FF920F931F9313
:10285000CF93DF9300D000D0CDB7DEB761ED7EEB34
:1028600088EB99E20E940B140E94EC020091912BDC
:102870001091922B2091932B3091942B10161106CE
:1028800012061306F4F400918D2B10918E2B2091DB
:102890008F2B3091902B011511052105310589F001
:1028A000AB01BC01401B510B620B730B80918B2B56
:1028B00090918C2BB0E0A0E0481759076A077B077E
:1028C000E8F180912028811115C08091852B90918D
:1028D000862BDC01ED91FC910684F785E02D6BE7FA
:1028E00070E0099590E080931E2890931F2881E066
:1028F0008093202883EE90E0A6E0BCEE89839A8343
:10290000AB83BC8380911E2890911F28892B09F0EE
:1029100043C080E090E0DC018093912B9093922B58
:10292000A093932BB093942B0E94EC0260938D2B79
:1029300070938E2B80938F2B9093902BC090912B24
:10294000D090922BE090932BF090942B0E94EC026D
:1029500000918D2B10918E2B20918F2B3091902BED
:10296000601B710B820B930B28EE33E040E050E0CC
:102970000E94C336CA01B9016C0D7D1D8E1D9F1DBD
:102980002496CDBFDEBFDF91CF911F910F91FF90B5
:10299000EF90DF90CF9008958091852B9091862BBA
:1029A000DC01ED91FC910680F781E02D0995809185
:1029B000852B9091862B6091872B7091882BDC0161
:1029C000ED91FC910688F789E02D4BE750E00995E1
:1029D000892B09F49ECF8091852B9091862BDC0169
:1029E000ED91FC910280F381E02D40E350E0BE01C7
:1029F0006F5F7F4F0995C09709F08BCF8091852B32
:102A00009091862BDC01ED91FC91008CF18DE02DF5
:102A10000995892B09F47DCF1FE08091852B90913A
:102A2000862BDC01ED91FC91028CF38DE02D099554
:102A3000C09749F066E970E080E090E00E94BC0237
:102A4000115059F766CF18E28091852B9091862B13
:102A5000DC01ED91FC910284F385E02D0995115084
:102A600099F78091852B9091862BDC01ED91FC915B
:102A70000284F385E02D09956C01990FEE08FF089B
:102A800013E0FE2CED2CDC2CCC248091852B909136
:102A9000862BDC01ED91FC910284F385E02D0995F4
:102AA000092E000CAA0BBB0BC82AD92AEA2AFB2A3A
:102AB000115039F78091852B9091862BDC01ED9197
:102AC000FC910284F385E02D09958C018091852B82
:102AD0009091862BDC01ED91FC910680F781E02D31
:102AE00009958091892B90918A2B092E000CAA0BB5
:102AF000BB0B80589E47AA4AB3488C0D9D1DAE1D46
:102B0000BF1D41E050E060E070E0023611051CF4AA
:102B100040E050E0BA01840F951FA61FB71FFCCEFE
:102B2000EF92FF920F931F93CF93DF93EC018B01F2
:102B30007A01888D998D029744F48C859D850E9439
:102B4000F71382E090E0888F998F8C859D85DC015A
:102B5000ED91FC910280F381E02DA701B801DF9196
:102B6000CF911F910F91FF90EF9009941F93CF93F6
:102B7000DF93EC01162F888D998D029744F48C8594
:102B80009D850E94F71382E090E0888F998F8C8555
:102B90009D85DC01ED91FC910190F081E02D612F8C
:102BA000DF91CF911F9109940C945F12FC01248155
:102BB0003581FB014481558124173507A0F0FC01C4
:102BC00080819181009779F0FB01608171816115AD
:102BD000710549F0241B350B820F931F0E94603B47
:102BE00021E0892B09F020E0822F08950F931F9395
:102BF000CF93DF93EC0188819981009759F02A8166
:102C00003B812617370730F081E0DF91CF911F918C
:102C10000F9108958B016F5F7F4F0E94893A009753
:102C200059F0888399830A831B832C813D81232B50
:102C300059F7FC011082E8CF80E0E7CFEF92FF92D6
:102C40000F931F93CF93DF9300D0CDB7DEB78C01E6
:102C500069831A82FC01E480F580FFEFEF1AFF0A16
:102C6000B7010E94F615882381F0F8012081318197
:102C700084819581BE016F5F7F4F820F931F0E94F9
:102C8000693BF801E482F58281E00F900F90DF91BB
:102C9000CF911F910F91FF90EF900895EF92FF92C7
:102CA0000F931F93CF93DF93EC017B018A01BA014D
:102CB0000E94F61528813981811114C02115310532
:102CC00019F0C9010E94003A188219821C821D82E3
:102CD0001A821B82CE01DF91CF911F910F91FF903D
:102CE000EF9008950C831D83B701C9010E94693BD1
:102CF000F1CFFB0101900020E9F73197AF01461BAE
:102D0000570B0C944E16FC01108211821282138212
:102D1000148215826115710551F0FB0101900020AC
:102D2000E9F73197AF01461B570B0C944E160895E7
:102D30000E94463BCF92DF92EF92FF920F93FC01ED
:102D4000C12CB9E0DB2EBDE3EB2EF12CC082D18289
:102D5000E282F3821482158281E090E08683978379
:102D6000C0900728D0900828E0900928F0900A2801
:102D7000F694E794D794C79490E04C155D056E05E2
:102D80007F0540F4F694E794D794C7949F5F9630FC
:102D9000A1F797E004600187892F8095A82FA17083
:102DA000B0E084E0AA0FBB1F8A95E1F791629A2BED
:102DB00080E0232B09F480E4982B90870F91FF90FB
:102DC000EF90DF90CF9008950F931F93CF93DF93F1
:102DD000CDB7DEB72A97CDBFDEBF8C01FC0187815E
:102DE00081110CC0108611861286138614861586F2
:102DF00016861786108A118A81E087838091E30501
:102E0000F8019681892B8093E30561E070E083816E
:102E10000E94760261E070E0F80184810E947602EF
:102E20008091C10884608093C1088091C00881624C
:102E30008093C0084091952A5091962A6091972AD4
:102E40007091982A0091992A20919B2A30919C2A6E
:102E5000CE0101960E949A1699858A859093C008A2
:102E60008093C1082A96CDBFDEBFDF91CF911F911D
:102E70000F910895CF9383E28093052884E2809395
:102E80000628C1E0C09337288DE18093042861E0D3
:102E900070E083E20E94A90170E060E084E20E9499
:102EA000760261E070E08DE10E94760261E070E000
:102EB0008CE10E94A90161E070E08CE10E940902AE
:102EC00061E070E083E20E94710261E070E08DE1F8
:102ED0000E9471026AE070E080E090E00E94BC0213
:102EE00070E060E08DE10E9471026EEE72E080E0C1
:102EF00090E00E94BC0270E060E08CE10E94090258
:102F000070E060E08CE10E94A90183E59AE20E94F2
:102F1000E416C093B729CF9108955F926F927F9284
:102F20008F929F92AF92BF92CF92DF92EF92FF92D9
:102F30000F931F93CF93DF93CDB7DEB76297CDBFCB
:102F4000DEBF3C010B871C872D873E87042F4F87F0
:102F5000588B698B7A8B29893A894B855C856D857D
:102F60007E85CE0101960E949A1659841A85D30156
:102F700018968C91882319F081FF18C0F89450920C
:102F8000C0081093C1086296CDBFDEBFDF91CF911C
:102F90001F910F91FF90EF90DF90CF90BF90AF9077
:102FA0009F908F907F906F905F90089580FFE7CF04
:102FB000F30182849384A484B584C12CD12C76013E
:102FC000B0E09401A501B601C701A0E00E94583904
:102FD000A9F1217030E040E050E060E070E080E076
:102FE00090E00E945839E9F090E080E0B03370F44E
:102FF0008B2F869586958695F0E28F9FC0011124D0
:10300000805F9B4F2B2F2770820F911DFC01408109
:1030100093012B0F311DF901428BFC012081287F88
:1030200020839401A501B601C70101E00E942B395C
:1030300049015A016B017C01BF5FC3CFD3011E96CA
:103040008D909D90AD90BC905197C12CD12C760164
:10305000B0E29401A501B601C701A0E00E94583971
:1030600009F48DCF217030E040E050E060E070E086
:1030700080E090E00E945839E9F090E080E0B033C1
:1030800070F48B2F869586958695E0E28E9FC00121
:103090001124805F9B4F2B2F2770820F911DFC0105
:1030A000408193012B0F311DF901428BFC012081DE
:1030B000287F20839401A501B601C70101E00E9489
:1030C0002B3949015A016B017C01BF5FC2CFCF92FE
:1030D000DF92EF92FF920F931F93CF93DF93CDB7C1
:1030E000DEB72897CDBFDEBF80E0082F1D821E828D
:1030F00081E0682F12E12AE730E040E05E8170E075
:1031000083E59AE20E948D1770E060E080910528C7
:103110000E9471020E94EC026B017C0180910628E2
:103120008932B8F00E94EC026C197D098E099F0962
:10313000653071058105910588F32896CDBFDEBF06
:10314000DF91CF911F910F91FF90EF90DF90CF9083
:1031500008950E944C02019781F3E4CFCF92DF9251
:10316000EF92FF920F931F93CF93DF9300D000D085
:10317000CDB7DEB77C0186E08E9D80018F9D100D5E
:1031800011240653144DF80184819581892B09F08F
:103190008CC080819181892B59F480E490E00E9459
:1031A0006439F8018283938380839183148215822A
:1031B00080E490E089839A8386E08E9DF0018F9D64
:1031C000F00D1124E653F44DC080D180EC828CE1E7
:1031D0000E944C02892B09F468C08091B7298111A3
:1031E00002C00E943A1780E00E9418090E946718E6
:1031F00062E085E40E94530940E061E070E0CE01A6
:1032000004960E946A0941E062E070E0CE010196F6
:103210000E946A090E94D5090E94F70A80E00E9474
:1032200018090E9467181B820E94E409892B49F142
:10323000CE0103960E94CB098B81853C11F50E943B
:10324000D5098823D1F08FEF0E944509182F8FEF01
:103250000E944509912F89839A83860129813A81A9
:10326000C8018C199D098217930738F48FEF0E94CB
:103270004509F80181938F01F1CFCE0103960E9499
:10328000CB090E94F70A89819A81009771F026E0A4
:103290002E9DF0012F9DF00D1124E653F44D208159
:1032A0003181228333838483958386E08E9DF00170
:1032B0008F9DF00D1124E653F44D84819581249661
:1032C000CDBFDEBFDF91CF911F910F91FF90EF90A7
:1032D000DF90CF900895CF92DF92EF92FF920F93FD
:1032E0001F93CF93DF937C016B018A010E94AE187C
:1032F0000097F9F0801791070CF48C0186E08E9D01
:10330000E0018F9DD00D1124C653D44D6A817B817D
:10331000A801C6010E94573B8A819B81800F911FA3
:103320008A839B838C819D81801B910B8C839D83E1
:10333000C801DF91CF911F910F91FF90EF90DF9027
:10334000CF900895CF93DF93FC0127853089121623
:1033500013068CF4EC01848590E00E946B1918161A
:10336000190634F42F853889281B390B2F87388BA1
:10337000DF91CF91089590E080E0FACF0F931F93F3
:10338000CF93DF931F92CDB7DEB7FC01278530893D
:1033900012161306C4F48C01848541E050E0BE018E
:1033A0006F5F7F4F90E00E946B19F80187859089CD
:1033B00001978787908B898190E00F90DF91CF9163
:1033C0001F910F9108958FEF9FEFF7CFFC01848538
:1033D00090E00C946B190F931F93CF93DF931F9280
:1033E000CDB7DEB78C01DC01ED91FC910084F18555
:1033F000E02D0995892B91F0F801848541E050E09A
:10340000BE016F5F7F4F90E00E946B19898190E051
:103410000F90DF91CF911F910F9108958FEF9FEF44
:10342000F7CFCF93DF93FC0127853089121613065F
:103430002CF08FEF9FEFDF91CF910895C485D0E0FE
:10344000CE010E94AE18892BA1F386E08C9FF0017B
:103450008D9FF00D1124E653F44D0280F381E02D91
:10346000808190E0E8CFCF93DF93FC01C485D0E06A
:10347000CE010E94AE18892B81F086E08C9FF0016E
:103480008D9FF00D1124E653F44D0280F381E02D61
:10349000808190E0DF91CF9108958FEF9FEFFACF79
:1034A000FC0184858F3F19F090E00C94AE1890E0F9
:1034B00080E00895CF92DF92EF92FF920F931F93D7
:1034C000CF93DF93CDB7DEB72897CDBFDEBF6C01BA
:1034D000162F7A012F83088719821A821B821C8279
:1034E0008091B729811102C00E943A1780E00E94A2
:1034F00018090E94671865E08DE20E94530940E0B8
:10350000612FC6010E949B0940E064E0CE01019654
:103510000E949B09C7010E94EE0F40E061E0CE01CE
:1035200007960E949B0941E061E0CE0108960E9447
:103530009B09012F10E0C8014196837099270F5F06
:103540001F4F892B19F00E94D509F5CF0E94F70A69
:1035500081E09885943009F080E00E9418090E946B
:1035600067181E821D82AE014B5F5F4FBE016A5F0E
:103570007F4F8DE20E94FC090E94F70A2896CDBF7A
:10358000DEBFDF91CF911F910F91FF90EF90DF9001
:10359000CF900895EF92FF920F931F93CF93DF93F5
:1035A000CDB7DEB72B97CDBFDEBF7C018FEF8B830E
:1035B0008C838D838E838091B729811102C00E94F4
:1035C0003A1780E00E9418090E94671860E085E3BE
:1035D0000E9453090E94F70A80E00E9418090E9485
:1035E00067181B86AE01455F5F4FBE01695F7F4F65
:1035F00085E30E94FC098C01892BB9F04F81588525
:1036000069857A85F701428353836483758391E0EA
:1036100080E00B811C812D813E814017510762079C
:10362000730709F490E0092F182F0E94F70AC801C8
:103630002B96CDBFDEBFDF91CF911F910F91FF90F1
:10364000EF900895EF92FF920F931F93CF93DF9324
:1036500000D0CDB7DEB77C018091B729811102C0BF
:103660000E943A1780E00E9418090E94671861E0E2
:1036700084E30E945309F70101900020E9F7319794
:10368000BF016E197F0941E0C7010E949B09F70144
:1036900001900020E9F78F010E191F090C5F1F4FE1
:1036A000C80183709927892B29F00E94D5090F5FE3
:1036B0001F4FF6CF0E94F70A80E00E9418090E946F
:1036C000671819821A82AE014E5F5F4FBE016F5FAD
:1036D0007F4F84E30E94FC09182F0E94F70A1123F0
:1036E00029F011E08981813009F010E0812F0F90DD
:1036F0000F90DF91CF911F910F91FF90EF90089560
:10370000CF92DF92EF92FF920F931F93CF93DF93AD
:10371000CDB7DEB72C97CDBFDEBF8C01CB016A01E0
:103720002CEDE22E2DEBF22EEF82F88619861A860A
:103730001B861C860E94221B81110EC090E080E037
:103740002C96CDBFDEBFDF91CF911F910F91FF90DF
:10375000EF90DF90CF900895CE0107960E94CA1A8D
:10376000892B61F3D801ED91FC910684F785E02D5A
:10377000E982FA8289859A85AB85BC858B839C8397
:10378000AD83BE83A601BE016F5F7F4FC80109955F
:10379000D7CFCF92DF92EF92FF920F931F93CF93E9
:1037A000DF93CDB7DEB72C97CDBFDEBF8C01CB0149
:1037B0006A012CEDE22E2DEBF22EEF82F8861986AF
:1037C0001A861B861C860E94221B81110EC090E067
:1037D00080E02C96CDBFDEBFDF91CF911F910F917E
:1037E000FF90EF90DF90CF900895CE0107960E9452
:1037F000CA1A892B61F3D801ED91FC910488F589EF
:10380000E02DE982FA8289859A85AB85BC858B8318
:103810009C83AD83BE83A601BE016F5F7F4FC8014D
:103820000995D7CFCF93DF9300D0CDB7DEB7809186
:10383000B729811102C00E943A1780E00E9418093E
:103840000E94671860E080E20E9453090E94F70A14
:1038500080E00E9418090E9467188FEF89831A82FE
:10386000AE014E5F5F4FBE016F5F7F4F80E20E94EF
:10387000FC090E94F70A89810F900F90DF91CF9188
:103880000895CF93DF93CDB7DEB72797CDBFDEBFC7
:103890008F8319821A821B821C826A837B834D83E9
:1038A0005E838091B729811102C00E943A1780E09F
:1038B0000E9418090E94671861E08AE30E94530978
:1038C00041E061E0CE0107960E949B090E94D50964
:1038D0000E94D5090E94F70A80E00E9418090E9400
:1038E0006718AE014F5F5F4F62E08AE30E948E0A65
:1038F0000E94F70A2796CDBFDEBFDF91CF910895D2
:10390000CF93DF93CDB7DEB72697CDBFDEBF198249
:103910001A821B821C821D821E82AE014B5F5F4F8A
:10392000BE016F5F7F4FFC0184850E94411C8D8129
:1039300090E0982F88272E81820F911D2696CDBF6B
:10394000DEBFDF91CF9108950F931F93CF93DF9345
:10395000CDB7DEB72697CDBFDEBF8C01FB01198244
:103960001A821B821C821D821E82AE014B5F5F4F3A
:10397000BE016F5F7F4F84850E94411C8CED9DEBE3
:10398000F8018083918389819A81AB81BC81828394
:103990009383A483B583C8012696CDBFDEBFDF9194
:1039A000CF911F910F910895CF93DF93CDB7DEB7DD
:1039B0002697CDBFDEBF19821A821B821C821D8210
:1039C0001E82AE014B5F5F4FBE016F5F7F4FFC01F8
:1039D00084850E94411C8D8190E0982F88272E813C
:1039E000820F911D2696CDBFDEBFDF91CF91089546
:1039F0000F931F93CF93DF93CDB7DEB72697CDBF3D
:103A0000DEBF8C01FB0119821A821B821C821D827F
:103A10001E82AE014B5F5F4FBE016F5F7F4F84859B
:103A20000E94411C8CED9DEBF8018083918389817C
:103A30009A81AB81BC8182839383A483B583C801BF
:103A40002696CDBFDEBFDF91CF911F910F910895D4
:103A5000CF93DF9300D0CDB7DEB78091B729811126
:103A600002C00E943A1780E00E9418090E9467185D
:103A700060E08FE30E9453090E94F70A80E00E94F1
:103A800018090E9467188FEF89831A82AE014E5F72
:103A90005F4FBE016F5F7F4F8FE30E94FC090E9462
:103AA000F70A89810F900F90DF91CF910895CF92FF
:103AB000DF92EF92FF920F93CF93DF93EC017B01A4
:103AC0006A018C858F3F39F0E881F9810488F58996
:103AD000E02DCE0109950E94281D8C878F3F09F4A7
:103AE00042C0F70101900020E9F73197BF016E193C
:103AF0007F0904E0282FA601C7010E945A1A0E94DC
:103B0000EC026B017C01E881F9810688F789E02DE0
:103B1000CE010995811112C00E94EC026C197D0939
:103B20008E099F09603177428105910538F461E083
:103B300070E080E090E00E94BC02E5CFE881F9816E
:103B40000688F789E02DCE01099521E090E08111EA
:103B500001C020E0822FDF91CF910F91FF90EF9075
:103B6000DF90CF9008956FEE7EEB88EB99E20E9494
:103B70000B1480E090E0EFCFCF92DF92EF92FF92B4
:103B80000F93CF93DF93EC017B016A018C858F3F0C
:103B900039F0E881F9810488F589E02DCE01099595
:103BA0000E94281D8C878F3F09F442C0F7010190C5
:103BB0000020E9F73197BF016E197F0902E0282F35
:103BC000A601C7010E945A1A0E94EC026B017C01F7
:103BD000E881F9810688F789E02DCE0109958111E8
:103BE00012C00E94EC026C197D098E099F09603198
:103BF00077428105910538F461E070E080E090E063
:103C00000E94BC02E5CFE881F9810688F789E02DA2
:103C1000CE01099521E090E0811101C020E0822FC2
:103C2000DF91CF910F91FF90EF90DF90CF900895AB
:103C30006FEE7EEB88EB99E20E940B1480E090E03F
:103C4000EFCF0F931F93CF93DF9300D01F92CDB789
:103C5000DEB78B8319821A8210E000E08091B729C9
:103C6000811102C00E943A1780E00E9418090E9448
:103C7000671861E08AE20E94530941E061E0CE01E9
:103C800003960E949B090E94D5090E94D5090E94B3
:103C9000F70A80E00E9418090E946718AE014E5F83
:103CA0005F4FBE016F5F7F4F8AE20E94FC090E9456
:103CB000F70A898181111BC00F5F1F4F64E670E016
:103CC00080E090E00E94BC028981811103C009312B
:103CD000110520F281E00931110509F480E02396F5
:103CE000CDBFDEBFDF91CF911F910F91089510E0FE
:103CF00000E0EACFEF92FF920F931F93CF93DF93F1
:103D000000D000D0CDB7DEB78C837B018A018091D3
:103D1000B729811102C00E943A1780E00E94180959
:103D20000E94671862E084E40E94530940E061E069
:103D300070E0CE0104960E946A0941E0B801C70113
:103D40000E946A09075F1F4FC80183709927892B5A
:103D500029F00E94D5090F5F1F4FF6CF0E94F70A86
:103D600080E00E9418090E94671819821A821B823B
:103D7000AE014D5F5F4FBE016F5F7F4F84E40E94D5
:103D8000460A0E94F70A89819A812496CDBFDEBF38
:103D9000DF91CF911F910F91FF90EF9008950F93B6
:103DA0001F93CF93DF938C014115510569F481E096
:103DB00090E0F80182839383D0E0C0E0CE01DF91F0
:103DC000CF911F910F910895FC0184810E947A1E6A
:103DD000EC01892B61F3F80184810E94211E882364
:103DE00031F3ECCFCF92DF92EF92FF920F931F93BC
:103DF000CF93DF93222379F06A017B018C01C5E028
:103E0000D0E0A601B701F80184850E947A1E0097D0
:103E100021F42197B1F790E080E0DF91CF911F91DD
:103E20000F91FF90EF90DF90CF900895CF93DF93A5
:103E300000D01F92CDB7DEB78B838091B729811157
:103E400002C00E943A1780E00E9418090E94671879
:103E500061E08FE20E94530941E061E0CE010396E8
:103E60000E949B090E94D5090E94D5090E94F70A69
:103E700080E00E9418090E94671819821A82AE0118
:103E80004E5F5F4FBE016F5F7F4F8FE20E94FC0964
:103E90000E94F70A89812396CDBFDEBFDF91CF91C3
:103EA0000895CF93DF93FC0124852F3FB9F0EC01F7
:103EB0000190F081E02D0084F185E02D0995892B9A
:103EC00021F081E0DF91CF9108958C858F3F41F4FF
:103ED0008C8590E00E94FC0F8FEF8C8780E0F2CF02
:103EE0000E94161F8430A0F39BEF980F933080F34D
:103EF0008A3039F7EDCF0F931F93CF93DF93CDB770
:103F0000DEB76297CDBFDEBF8C018091BA2B8F3FA9
:103F100009F485C08091BB2B8F3F19F11B821C8255
:103F200048EE53E060E070E04D835E836F837887F6
:103F300024E03EEB29833A838D8781E0888BCE0194
:103F400001960E94511F882361F0CE0101960E94C4
:103F5000501A892B31F08091BB2B90E08F3F910557
:103F6000D9F58091BA2B8A8B8CE10E944C022FEFFD
:103F7000892B79F18091B729811102C00E943A17EB
:103F800080E00E9418090E94671861E08BE20E949D
:103F9000530941E061E0CE0142960E949B090E94D4
:103FA000D5090E94D5090E94F70A80E00E941809ED
:103FB0000E946718198A19821A82AE014F5E5F4FFC
:103FC000BE016F5F7F4F8BE20E94FC090E94F70ADF
:103FD0002981822F2F3F19F18093BB2BF801128288
:103FE000138248EE53E060E070E0448355836683BB
:103FF0007783108611861286138624E03EEB208399
:10400000318384871586168681E08787C80162968A
:10401000CDBFDEBFDF91CF911F910F910895F801C1
:104020001282138288EE93E0A0E0B0E0848395834F
:10403000A683B78384E09EEB808391838FEF848790
:10404000E3CFCF93DF9300D01F92CDB7DEB78B8342
:104050008091B729811102C00E943A1780E00E9426
:1040600018090E94671861E08EE20E94530941E03E
:1040700061E0CE0103960E949B090E94D5090E942F
:10408000D5090E94F70A80E00E9418090E9467186B
:1040900019821A82AE014E5F5F4FBE016F5F7F4F84
:1040A0008EE20E94FC090E94F70A2396CDBFDEBF74
:1040B000DF91CF910895CF93DF93EC018C858F3FF3
:1040C00041F00E9421208C8590E00E94FC0F8FEF30
:1040D0008C87DF91CF9108950F931F93CF93DF9338
:1040E000EC018C858F3FD9F00E94212002E310E083
:1040F0008C858F3F71F00E94161F882351F001506C
:10410000110939F064E670E080E090E00E94BC02A2
:10411000EFCF8C8590E00E94FC0F8FEF8C87DF91B2
:10412000CF911F910F910895EF92FF920F931F93DC
:10413000CF93DF938C017B01EA01DC011C968C910B
:104140008F3F79F481E090E0F80182839383D0E09F
:10415000C0E0CE01DF91CF911F910F91FF90EF90C2
:104160000895209779F30E947A1E009731F5D801BF
:104170001F968C911F9781110CC0F80184850E94B5
:10418000212081E090E0D80112968D939C931397A3
:10419000DECFED91FC9102A0F3A1E02D21E0AE0174
:1041A000B701C8010995EC01892B39F3F801848521
:1041B0000E94211E882331F2CCCFEC01F7CFEF9281
:1041C000FF920F93CF93DF93CDB7DEB72897CDBF84
:1041D000DEBF6B837C838D839E837A012F83088768
:1041E0008091B729811102C00E943A1780E00E9495
:1041F00018090E94671864E08DE20E94530940E0AC
:1042000064E0CE0103960E949B09C7010E94EE0F55
:1042100040E061E0CE0107960E949B0941E061E029
:10422000CE0108960E949B090E94F70A80E00E9436
:1042300018090E94671819821A82AE014E5F5F4FFB
:10424000BE016F5F7F4F8DE20E94FC090E94F70A5A
:104250002896CDBFDEBFDF91CF910F91FF90EF90F9
:104260000895EF92FF920F931F93CF93DF93EC018A
:104270008B017A018C858F3F19F40E94281D8C8751
:104280002C8590E080E02F3F59F0F8016281738126
:104290008481958101E0A7010E94DF2081E090E008
:1042A000DF91CF911F910F91FF90EF900895AF9202
:1042B000BF92CF92DF92EF92FF920F93CF93DF9353
:1042C000EC017B015A018C858F3F39F0E881F9813F
:1042D0000488F589E02DCE0109950E94281D282F1C
:1042E0008C878F3F09F43FC0F7016281738184811D
:1042F000958104E0A5010E94DF200E94EC026B0181
:104300007C01E881F9810688F789E02DCE010995C5
:10431000811112C00E94EC026C197D098E099F095F
:10432000603177428105910538F461E070E080E00A
:1043300090E00E94BC02E5CFE881F9810688F78908
:10434000E02DCE01099521E090E0811101C020E02F
:10435000822FDF91CF910F91FF90EF90DF90CF9060
:10436000BF90AF9008956FEE7EEB88EB99E20E94CC
:104370000B1480E090E0EDCFAF92BF92CF92DF922E
:10438000EF92FF920F93CF93DF93EC017B015A01E1
:104390008C858F3F39F0E881F9810488F589E02D1B
:1043A000CE0109950E94281D282F8C878F3F09F484
:1043B0003FC0F701628173818481958102E0A5018C
:1043C0000E94DF200E94EC026B017C01E881F981F0
:1043D0000688F789E02DCE010995811112C00E944F
:1043E000EC026C197D098E099F09603177428105C5
:1043F000910538F461E070E080E090E00E94BC023A
:10440000E5CFE881F9810688F789E02DCE0109958D
:1044100021E090E0811101C020E0822FDF91CF9157
:104420000F91FF90EF90DF90CF90BF90AF900895E5
:104430006FEE7EEB88EB99E20E940B1480E090E037
:10444000EDCFAF92BF92CF92DF92EF92FF920F9398
:10445000CF93DF93EC017B015A018C858F3F39F0BC
:10446000E881F9810488F589E02DCE0109950E9443
:10447000281D282F8C878F3F09F43FC0F7016281E8
:1044800073818481958100E0A5010E94DF200E9454
:10449000EC026B017C01E881F9810688F789E02D47
:1044A000CE010995811112C00E94EC026C197D09A0
:1044B0008E099F09603177428105910538F461E0EA
:1044C00070E080E090E00E94BC02E5CFE881F981D5
:1044D0000688F789E02DCE01099521E090E0811151
:1044E00001C020E0822FDF91CF910F91FF90EF90DC
:1044F000DF90CF90BF90AF9008956FEE7EEB88EB8A
:1045000099E20E940B1480E090E0EDCF0F931F938F
:10451000CF93DF9300D000D0CDB7DEB78C016B8393
:104520004C838091B729811102C00E943A1780E024
:104530000E9418090E94671863E088E20E945309EC
:10454000C8010E94EE0F40E061E0CE0103960E9498
:104550009B0941E061E0CE0104960E949B090E9404
:10456000D5090E94F70A80E00E9418090E94671886
:1045700019821A82AE014E5F5F4FBE016F5F7F4F9F
:1045800088E20E94FC090E94F70A2496CDBFDEBF94
:10459000DF91CF911F910F910895EF92FF921F939A
:1045A000CF93DF93EC017B018C858F3F39F0E8815D
:1045B000F9810288F389E02DCE0109950E94281D1A
:1045C000182F80E01F3F59F041E0612FC7010E9482
:1045D00086221C87ED86FE861F86188A81E0DF9181
:1045E000CF911F91FF90EF900895CF93DF93EC014F
:1045F0000E94281D8C838F3F41F040E0682F8E8100
:104600009F81DF91CF910C948622DF91CF91089505
:104610000F931F93CF93DF9300D000D0CDB7DEB7B9
:104620008C01F80127853089C90101978787908B14
:104630008485232B49F041E050E0BE016F5F7F4F3E
:1046400090E00E946B19EDCF8C838CE10E944C02AC
:10465000892BD9F18091B729811102C00E943A17A4
:1046600080E00E9418090E94671861E08BE20E94B6
:10467000530941E061E0CE0104960E949B090E942B
:10468000D5090E94D5090E94F70A80E00E94180906
:104690000E9467181B8219821A82AE014D5F5F4F1C
:1046A000BE016F5F7F4F8BE20E94FC090E94F70AF8
:1046B00089819A81F8018787908B2496CDBFDEBFD0
:1046C000DF91CF911F910F91089590E080E0F2CF9C
:1046D000EF92FF920F931F93CF93DF9300D01F921F
:1046E000CDB7DEB77B018A01FC0184858B83809185
:1046F000B729811102C00E943A1780E00E94180970
:104700000E94671862E086E40E94530940E061E07D
:1047100070E0CE0103960E946A0941E0B801C7012A
:104720000E946A097801F9E0EF0EF11CC70183705D
:104730009927892B31F00E94D5098FEFE81AF80AE2
:10474000F5CF0E94F70A80E00E9418090E946718BE
:104750001A821982AE014F5F5F4FBE016E5F7F4FBD
:1047600086E40E94460A0E94F70AC8012396CDBF3C
:10477000DEBFDF91CF911F910F91FF90EF900895D1
:10478000CF93DF9300D01F92CDB7DEB7FC018485B5
:104790008B838091B729811102C00E943A1780E073
:1047A0000E9418090E94671861E089E30E9453097A
:1047B00041E061E0CE0103960E949B090E94D50969
:1047C0000E94D5090E94F70A80E00E9418090E9401
:1047D00067181A821982AE014F5F5F4FBE016E5F8C
:1047E0007F4F89E30E94460A0E94F70A8981882345
:1047F00021F081E09A81913009F080E090E02396E9
:10480000CDBFDEBFDF91CF910895AF92BF92CF921F
:10481000DF92FF920F931F93CF93DF93CDB7DEB755
:104820002897CDBFDEBF8C015B016A01DC011C96BD
:104830008C911C978F3F39F0ED91FC910288F389A0
:10484000E02DC80109950E94281DF82EBFEF80E0D9
:10485000FB1609F451C0F50182819381A481B581D1
:1048600089839A83AB83BC83F88683E08D838091B0
:10487000B729811102C00E943A1780E00E941809EE
:104880000E94671864E088E20E94530940E064E0F7
:10489000CE0101960E949B09C6010E94EE0F40E0E6
:1048A00061E0CE0108960E949B0941E061E0CE01E3
:1048B00005960E949B090E94F70A80E00E94180951
:1048C0000E9467181F821E82AE014A5F5F4FBE01C1
:1048D000695F7F4F88E20E94FC090E94F70AD801B5
:1048E0001C96FC921C971D96CD92DC921E971F96EB
:1048F0001D921C92509781E02896CDBFDEBFDF91BC
:10490000CF911F910F91FF90DF90CF90BF90AF900C
:1049100008952F923F924F925F926F927F928F9263
:104920009F92AF92BF92CF92DF92EF92FF920F933E
:104930001F93CF93DF93CDB7DEB7E797CDBFDEBF31
:104940002C016B017A0189012DB73EB72CA33DA341
:104950000E94810B882359F0D2011C968D919C9165
:10496000DC01ED91FC910488F589E02D0995F201B7
:1049700012AA13AA17A69201235A3F4F28A339A3BC
:10498000D9011D921C9284859585DC01ED91FC91E5
:10499000E114F10451F10088F189E02DA801B7017B
:1049A0000995892BC9F58EEF9FEFF20185A796A790
:1049B00010E000E0C801ECA0FDA0EDBEFEBEE79651
:1049C000CDBFDEBFDF91CF911F910F91FF90EF9090
:1049D000DF90CF90BF90AF909F908F907F906F901F
:1049E0005F904F903F902F9008950684F785E02DBB
:1049F0002CED3DEB29833A83D60112964D915D91C2
:104A00006D917C9115974B835C836D837E83A801A8
:104A1000BE016F5F7F4FC4CF0E94EC028201005B3A
:104A20001F4F0AA31BA3D8016D937D938D939C9375
:104A300013971A8A1B8A1C8A1D8A1E8A1F8AF201F2
:104A4000608971896115710531F044895589CE01FC
:104A500042960E944E16AE88BF88D2015A96CD90DB
:104A6000DC905B979096ED90FC90FE0131964F01A3
:104A7000A114B104F9F40E94EC029F938F937F93E9
:104A80006F9383E09FEB9F938F931F9281E18F93AE
:104A90009F928F920E94703BB401CE0142960E9479
:104AA00079160DB71EB7065F1F4F0DBF1EBF10E171
:104AB000A12EB12C32011EE6610E711CD3010D91A5
:104AC0001C91045F1F4F0A0D1B1D80E0C114D1040F
:104AD00029F0C6010296080F191F80E8E114F104BD
:104AE00031F0806497012E5F3F4F020F131FF201D8
:104AF000EE58FF4F9081892BF20192A191118260B3
:104B000020E034E029833A83409111BF509112BFD5
:104B1000609113BF709114BF4B835C836D837E8360
:104B200094E09F838887D20193966D917D918D91BA
:104B30009C91969728EE33E040E050E00E94C33607
:104B4000922F8827232F342F452F5527282B392B99
:104B500029873A87C8010596EDB7FEB7E81BF90B20
:104B6000EDBFFEBF2DB73EB72F5F3F4FA80161E0FD
:104B7000C2010E9486104AE050E0B401C2010E94C6
:104B800067106A897B89A501C2010E94CC11D301FB
:104B90004D915C914115510541F0F201E459FF4FEF
:104BA00060817181C2010E946710C114D10439F083
:104BB000F20166897789A601C2010E94CC11E11435
:104BC000F10441F0D2015C966D917C91A701C20184
:104BD0000E94CC11C2010E948C0B8C01892BA1F484
:104BE000F20184859585DC01ED91FC910488F589BD
:104BF000E02D099583E090E0F20185A796A7CE010C
:104C000042960E941510D6CE8FEF9FEFD201DC9610
:104C10008D939C93DD970E94EC024B015C01820115
:104C2000025B1F4F0EAB1FAB055011090EA71FA74C
:104C300062011BE4C10ED11C320124E4620E711C1E
:104C400082010E5B1F4F08AB19AB0E94EC02681982
:104C500079098A099B09D20197960D911D912D9191
:104C60003C919A97601771078207930708F049C132
:104C7000C2010E94810B882309F443C1C2010E9432
:104C8000760B892B49F4C2010E94810B811104C06B
:104C9000F20112AA13AA17A61201F7E42F0E311C73
:104CA00072010DE4E00EF11C82010D591F4F0EA39D
:104CB0001FA30751110908A719A7065011090AA730
:104CC0001BA70E5F1F4F0CA71DA7C2010E94760BEA
:104CD000892B09F4D7C0D2011C968D919C91DC01DF
:104CE000ED91FC910284F385E02D09958C010E94E1
:104CF000EC02EAA1FBA16083718382839383D201DA
:104D0000D296ED91FC91D397E830F10508F0B4C04C
:104D1000E457F94D0C9423399426B32693270C2895
:104D200063289928DB28DB28C801F4E0959587954E
:104D3000FA95E1F78F709927F20184AB0F7005ABFC
:104D400016AA17AA01E010E020E030E0D8960D93F3
:104D50001D932D933C93DB9781E090E0D2968D9349
:104D60009C93D39789C0F20140AD51AD62AD73AD54
:104D7000C8018F779927849F9001859F300D949F5C
:104D8000300D112486A997A9280F391F26AB37AB00
:104D9000E7E0440F551F661F771FEA95D1F7D896B5
:104DA0004D935D936D937C93DB9741305105604249
:104DB000710520F0D201ED91FC9173C107FD85CF03
:104DC000F20184A9823041F09CEF980F923020F0DC
:104DD000873011F08B3059F4D201D5969C91911106
:104DE000E9CF2230310531F7833039F02AC08330E2
:104DF000F1F485A986708630E9F2F20185A9982F31
:104E0000991F9927991FAAA5BBA59C93282F30E02D
:104E1000359527952370F10120838170ACA5BDA540
:104E20008C9383E090E0F20182AB93AB21C086309B
:104E300059F485A9823009F0BDCF2230310509F03F
:104E4000B9CF82E090E0EFCF893039F485A98111A4
:104E5000B1CF23303105A9F3ADCF8D3009F0AACF02
:104E600085A98111A7CF232B09F0A4CF12AA13AAD9
:104E7000AEA9BFA91D921C92F20182A993A906971F
:104E800009F023CFD2019F968C918823A1F10E9433
:104E9000EC02D2019396ED90FD900D911C919697A6
:104EA000EAAAFBAA0CAB1DABF201E859FF4FE08068
:104EB000F180028113819B01AC012E193F09400B47
:104EC000510BEAA8FBA80CA91DA92E153F05400708
:104ED000510708F483C160837183828393839E01A9
:104EE000285E3F4F50E040E06CE0C2010E94861017
:104EF000C2010E948C0BF20184AD95AD019609F4BC
:104F0000A4CED201DC968D919C91DD979D968D93D8
:104F10009C939E97892B09F07AC181E09F968C9390
:104F200001E010E06CCEEEA9FFA9808191819C0187
:104F30002F5F3F4F20833183840D951DFC01E55B7E
:104F4000FF4F0083D6968D919C91D79728173907EC
:104F500009F0BBCED2961D921C92D397D4968C9119
:104F6000D497823049F4E8A5F9A5808190E0DC96D9
:104F70008D939C93DD9780CF9CEF980F923020F01B
:104F8000873011F08B30A1F4D6018D919C91982738
:104F900089279827E8A1F9A12081318182179307F9
:104FA00009F093CED201DC961D921C92DD9764CF5E
:104FB0008630E1F4F60100811181102701271027C6
:104FC000AEA1BFA18C91811180CE9E01285E3F4F82
:104FD00042E050E067E0C2010E948610B801C201C1
:104FE0000E940511C2010E948C0B46CF893009F046
:104FF0006CCEF60180819181982789279827A8A1F6
:10500000B9A12D913C912817390709F05ECEF7011F
:10501000808190E0D201ABCFEEA9FFA98081918180
:105020009C012F5F3F4F20833183840D951DFC0130
:10503000E55BFF4F00832230310509F046CED601F3
:105040008D919C91982789279827F30180839183DC
:10505000D201D6968D919C91D7970297D6968D9333
:105060009C93D79760ED7EEB8201025C1F4FC801D5
:105070000E947916F30160817181C8010E94F615C2
:10508000D1014C91F20126A937A9D3018D919C91B0
:10509000442369F002962817390768F40190F081DB
:1050A000E02D0488F589E02DC201099524CF281749
:1050B000390708F47FCEEEA9FFA91082118284E09F
:1050C00090E0D2014BCE602FC201CE960E941E16F8
:1050D000F30120813181A8A9B9A98D919C9128174C
:1050E000390709F0C9CEF20186A997A9821B930B53
:1050F00086AB97ABD1012C91222329F085E090E07B
:1051000082AB93ABB9CE26E030E022AB33AB068462
:10511000F785E02D309709F4B5CE0995D201D696E2
:105120008D919C91892B09F0A7CEF20112AA13AAA6
:10513000A3CEAEA9BFA98D919C9111979C012F5F21
:105140003F4F2D933C93840D951DFC01E55BFF4F74
:1051500000832230310509F0B8CDF20186A997A964
:10516000029786AB97ABD6012D913C91322723272E
:105170003227EEA5FFA52083318326E030E0D2015F
:10518000D2962D933C93D3971E96ED91FC91309738
:1051900009F00995F20186A997A9892B09F06CCE2F
:1051A000C2010E941B11D2011E968D919C91892BE8
:1051B00009F0BBCF61CEF20186A997A9009719F03B
:1051C000019786AB97ABD201D6968D919C91D797DC
:1051D000892B09F4AACF87E090E0C0CDAAA1BBA19A
:1051E000ED90FD900D911C916E197F09800B910B34
:1051F0000AA91BA92CA93DA9000F111F221F331FAB
:10520000601771078207930708F475CED3CDF201BA
:1052100084859585DC01ED91FC910488F589E02D6C
:10522000099510E000E0EBCCCF93DF93CDB7DEB76C
:105230002697CDBFDEBF9A014CED5DEB49835A83C3
:105240001B821C821D821E82AB01BE016F5F7F4FDD
:105250000E9489242696CDBFDEBFDF91CF910895AD
:10526000CF93DF93CDB7DEB72697CDBFDEBF9A01D0
:105270004CED5DEB49835A83FB014281538164818C
:1052800075814B835C836D837E8350E040E0BE017B
:105290006F5F7F4F0E9489242696CDBFDEBFDF91CE
:1052A000CF910895EF92FF920F931F93CF93DF93C7
:1052B00000D0CDB7DEB78C01DC0158968D919C9162
:1052C0000997F9F4F80184859585DC01ED91FC914D
:1052D0000084F185E02D0995892B99F0F8018485EA
:1052E0009585DC01ED91FC910284F385E02D099513
:1052F000F82EBAE08B133CC08AE090E0F801808F72
:10530000918FD80158968D919C9159970A9761F485
:1053100095968D919C919697892B31F489E090E038
:1053200058968D939C935997F801808D918D09978C
:1053300009F444C084859585DC01ED91FC910084DD
:10534000F185E02D0995F801208D318D2A30310548
:1053500031F425A136A1281739070CF4C9010F90A3
:105360000F90DF91CF911F910F91FF90EF900895D3
:10537000FDE08F1709F4A6CF082E000C990B0E94B0
:105380004B3B892B09F49ECF19821A82F982D801EE
:105390009596ED90FC9084E0EE0CFF1C8A95E1F769
:1053A00040E150E070E060E0CE0101960E946C3474
:1053B0006E0D7F1DF80165A376A384CF90E080E099
:1053C000CECFCF92DF92EF92FF920F931F93CF93A6
:1053D000DF93CDB7DEB72597CDBFDEBF0E94350C7A
:1053E0000E94E10C88E2C82E88E2D82EF601828164
:1053F0001F928F9396E1E92E9FEBF92EFF92EF9289
:105400008E010F5F1F4F1F930F930E94A03BB801A7
:1054100088EB99E20E94D4150E94350C0E94E10CA1
:10542000F60181811F928F93FF92EF921F930F934A
:105430000E94A03BB80188EB99E20E94D4150E941B
:10544000350C0E94E10CF60180811F928F938CE154
:105450009FEB9F938F931F930F930E94A03BB801E4
:1054600088EB99E20E94D415CDBFDEBF2596CDBF53
:10547000DEBFDF91CF911F910F91FF90EF90DF90F2
:10548000CF9008951F920F920FB60F9211242F9371
:105490003F934F935F936F937F938F939F93AF93BC
:1054A000BF934091AB295091AC296091AD29709187
:1054B000AE298091A9299091AA292091A7293091FC
:1054C000A829420F531F611D711D2091A5293091FC
:1054D000A629820F931F883E23E0920730F0885E52
:1054E00093404F5F5F4F6F4F7F4F8093A9299093F9
:1054F000AA294093AB295093AC296093AD297093AE
:10550000AE298091B3299091B429A091B529B09189
:10551000B6290196A11DB11D8093B3299093B4299A
:10552000A093B529B093B62981E08093B60ABF91C4
:10553000AF919F918F917F916F915F914F913F912B
:105540002F910F900FBE0F901F9018951F920F92E2
:105550000FB60F9211242F933F934F935F936F9346
:105560007F938F939F93AF93BF93EF93FF9388EBBA
:1055700099E20E94FB03FF91EF91BF91AF919F9140
:105580008F917F916F915F914F913F912F910F90EC
:105590000FBE0F901F9018951F920F920FB60F928B
:1055A00011242F933F934F935F936F937F938F9328
:1055B0009F93AF93BF93EF93FF93E091C429F09132
:1055C000C529818181FD2FC060818091CA298F5FAB
:1055D0008F739091CB29891741F0E091CA29F0E0AF
:1055E000E854F64D618F8093CA298091512A909199
:1055F000522A009739F0DC01ED91FC910190F08185
:10560000E02D0995FF91EF91BF91AF919F918F91FF
:105610007F916F915F914F913F912F910F900FBEAE
:105620000F901F9018958081EDCF1F920F920FB6AB
:105630000F9211242F933F934F935F936F937F9318
:105640008F939F93AF93BF93CF93EF93FF93C091AB
:10565000AB08C2FF0AC01092522910925129109231
:10566000502984E00E94BC0614C0C6FF2FC0809160
:105670004F29813051F480915229E0914D29F091C8
:105680004E2990E0099510924F29C0FF14C00E9446
:10569000CC06FF91EF91CF91BF91AF919F918F91E8
:1056A0007F916F915F914F913F912F910F900FBE1E
:1056B0000F901F90189580E48093AB0881E00E94C2
:1056C000BC068091AB0885FFE4CFE1CFC7FF5CC08B
:1056D000C3FF08C0109252291092512910925029EC
:1056E00083E0C0CF8091A90880668093A90880914B
:1056F000AB0881FF2CC080915129882349F080910B
:10570000AB0884FF05C082E08093AA0881E0AACF9D
:1057100090915129809150299817A8F4E09151292E
:105720008091482990914929E80FF92FF11D808136
:105730008093AD08809151298F5F8093512983E038
:105740008093AA08A6CF82E08093AA088BCF90917D
:10575000522980914C29981790F48091AD08E091DE
:10576000522920914A2930914B29E20FF32FF11D44
:105770008083809152298F5F80935229E0CF86E009
:105780008093AA0882E06ECF85E06CCF1F920F92C3
:105790000FB60F9211242F933F938F939F93EF9304
:1057A000FF938091A508982F9C70E1F08091A50847
:1057B00094E082FF93E090935D298093A50881E0B7
:1057C00090E0809353299093542910925E29FF9181
:1057D000EF919F918F913F912F910F900FBE0F905E
:1057E0001F90189586FF4EC020915A2990915929F3
:1057F0008091A50884FF15C080915629882379F0EF
:1058000083E08093A40885E080935D2910925E294F
:1058100081E090E08093532990935429D8CF81E080
:10582000F0CF80915829821790F4E0915829809107
:105830005B2990915C29E80FF92FF11D80818093FD
:10584000A808809158298F5F80935829C0CF8091F4
:105850005729891760F484E090E08093532990934E
:1058600054298091552981608093A708B0CF8091F9
:105870005629882329F083E08093A40881E0C4CFCF
:1058800081E0FACF87FF40C0909157298091592934
:105890009817D8F48091A808E091572920914629BB
:1058A00030914729E20FF32FF11D80838091572912
:1058B0008F5F809357299091592980915729891793
:1058C000D8F482E08093A40882CF8091562988235F
:1058D00089F087E08093A40882E080935D2910928C
:1058E0005E2981E090E0809353299093542910928F
:1058F00059296DCF85E0EECF80915629882311F08C
:1059000087E0BACF85E0B8CF86E07ECFCF93DF9334
:1059100084E79EEB8093BF2A9093C02A8CEE9AE294
:105920000E94151082E09BE20E942110D0E0C0E0AE
:10593000CE010E94FC0F2196CA30D105C9F7DF9134
:10594000CF9108954F925F926F927F92AF92BF92E4
:10595000CF92DF92EF92FF920F931F93CF93DF933B
:10596000E8EBF9E21282138288EEC82E83E0D82E8B
:10597000E12CF12CC482D582E682F7828CE79DEB84
:105980008083918380E698E0848795878AE1868783
:105990008BE1878780E4808B128A138A148A158AA8
:1059A00086E2868B178A108E1092512A1092522A04
:1059B000E5E9FAE280E099E0ADE3B0E0808391832D
:1059C000A283B3831482158281E090E0868397835B
:1059D000E3E5FAE286E99DEB80839183178211E08B
:1059E000168381E2828382E2848380E2838386E17C
:1059F0008583EDE9FAE212821382C482D582E682BF
:105A0000F78284EB9DEB80839183EAECFBE28CE3ED
:105A1000DF011D928A95E9F7E9EAFAE280E593EC65
:105A2000A0E0B0E080839183A283B38314821582C7
:105A3000E0ECFBE2128213828AE59EEB8083918385
:105A4000E6EBFBE21282138286E69EEB8083918373
:105A50000FEF0483058380E590E08683978386EAD1
:105A60009BE20E947B1FA5E9BBE212961D921C924D
:105A700013971496CD92DD92ED92FC92179782E3E4
:105A80009EEB8D939C9311971C960C931C971F96DD
:105A90001D921C925097E5E8FBE21482158280E685
:105AA0009AEE868397831086118612861386148653
:105AB000158616861786A083B18382E29FEB8283C8
:105AC0009383E5E7FBE212821382C482D582E682E9
:105AD000F78294E0A92E9EEBB92EA082B1820487B2
:105AE0001787C2E0DBE21A821B82CC82DD82EE8263
:105AF000FF8282EE9DEB88839983EC87FD871E866B
:105B00001F8660ED7EEB82E19BE20E94831660EDD2
:105B10007EEB88E19BE20E94831660ED7EEB8EE1D6
:105B20009BE20E9483161AA380E69AEEA0E0B0E002
:105B30008BA39CA3ADA3BEA320E3422E25E7522E48
:105B4000612C712C4FA258A669A67AA680E890E035
:105B50008BA79CA71DA61EA61FA618AA19AA1AAA3B
:105B60001BAA60ED7EEB80E49BE20E94831660ED51
:105B70007EEB86E59BE20E9483161092632B1092C7
:105B8000642B1092662B1092672B1092682B109248
:105B9000692B10926E2B10926F2B1092702B10921B
:105BA000712B1092722B1092732B1092742B1C82FB
:105BB0001D821E821F82E2EFFAE212821382C482E9
